:020000020000FC
:020000003FC0FF
:100080000FEF04B907B90E94C0014AD108E00EBFC2
:100090000FEF0DBF389A3F98479A409841D1F2E050
:1000A000EBE80E943B0101E010E00E942B01F2E02E
:1000B000E5E90E943B01D4D1DAD101E0EBD001D0D7
:1000C00053C06F93B1E0A5E0D1E0C7E062E0F2E099
:1000D000EEE70E943B0142D141D140D128D0D8F770
:1000E0001D936A95C1F700910501005DE8D000916C
:1000F0000601005DE4D001E010E00E942B0162E007
:10010000F2E0E4E80E943B0129D128D127D10FD0A9
:10011000D8F719936A95C1F700910701005DCFD018
:1001200000910801005DCBD06F91C2D108950FE01E
:1001300007B92EEF14E028B936B136B1307F303F21
:1001400031F4220F23951A95B1F788940CC01450FE
:100150001195329544E0379528F41C5F4A95D9F7FC
:10016000889401C00894089500E001B900E4009368
:100170007C0006E800937A0001E00E944A010091A9
:100180007A00006400937A0000917A0004FFFCCFAB
:1001900000937A0000917800109179000F931F93DB
:1001A0000BD100910101013099F00091020107305B
:1001B00078F4033030F42898F2E0ECE60E943B013A
:1001C0000DC0289AF2E0E3E70E943B013ED106C051
:1001D000289A58D1F2E0EEE60E943B0101E010E0DF
:1001E0000E942B01F2E0EAE70E943B011F910F9170
:1001F00020EA30E0021B130B68E0F7D0DDD000915D
:100200000301005D0E945F0100910401005D0E94F6
:100210005F0100E20E945F0104E60E945F010FE6B9
:100220000E945F0100E20E945F0103E40E945F01FF
:1002300034D1A2CF0FEF07B95A9A0E949001F2E091
:10024000E8E60E943B0101E010E00E942B01F2E091
:10025000E3E60E943B01003031F41F701068012F6B
:100260000E944A010895013029F41F70106C012F7B
:100270000E944A010895FF93EF930F93EE0FFF1F23
:100280000591003019F00E945F01FACF0F91EF91B4
:10029000FF9108951F930E947601102F107F1BB9C4
:1002A000000000005A9A000000005A980295007F52
:1002B0000BB95A9A000000005A981F9108951F9395
:1002C0000E947601102F107F11601BB900005A9A0E
:1002D00000005A9800000295007F007F01600BB972
:1002E00000005A9A00005A981F9108950F9307E052
:1002F0000AB902EF0BB900005A9A0000000009B1D8
:100300005A9800005A9A000000005A98000000789D
:10031000003891F307EF0AB900E00BB90F91089587
:1003200007EF0AB90E94AE010E94AE0102E00E94EE
:100330004A0108E20E944A010EE00E944A0101E0DF
:100340000E944A0100E80E944A01089508E01AEF5D
:100350001A950000E9F70A95D1F708952AE00E945E
:10036000A6012A95E1F7089502E00093690001E0F3
:100370000DBB7894089516B121E0122718B918958D
:100380008FE087B908954398439A0895409828E0EC
:1003900047FD419A409A440F409841982A95C1F7E9
:1003A000429A4298089500E001B900E400937C006D
:1003B00006E800937A000895BF93AF932F934F936D
:1003C000BF920F93B1E0A0E025E040E04D932A9565
:1003D000E9F76AE00AD0BE920030E1F70F91BF90D2
:1003E0004F912F91AF91BF9108952F936F9320E17B
:1003F000BB248894000F111FBB1C20F0B61A18F400
:10040000B60E02C0B61A01602A9599F76F912F9126
:1004100008955F93AF92BF9251E3A02EB12E0A0DC3
:100420001B1D5A95E1F7BF90AF905F9108955F93C0
:1004300050E0752E52E5652E061917095F91089553
:10044000449A45980E944202FFCF08E104B903EAAA
:1004500004BD02E005BD04EB07BD00E008BD089542
:1004600000E00093800000E000938100089503E025
:100470000093810006B300FFFDCF06BB00E00093B0
:100480008100089508E104B903EA04BD02E005BD56
:100490000FEF07BD00E008BD08950EE110EA22E36A
:1004A0002A950000E9F71A95D1F70A95B9F708954A
:1004B00006E910EA22E32A950000E9F71A95D1F738
:1004C0000A95B9F70895446F7574203D2020000007
:1004D000446F7574203D20004F4646004D41582022
:1004E0005350454544004E4F524D414C20535045CA
:1004F0004544000054656D70203D200054656D70CA
:10050000206C6F77203D200054656D70206869670E
:1005100068203D2000004F46463C313E4E4F523C45
:10052000323E4D4158203D2000004E484150204D64
:0A0530005543203120262032000040
:00000001FF
